{
  "contractName": "Hello",
  "abi": [
    {
      "constant": false,
      "inputs": [],
      "name": "sayHi",
      "outputs": [
        {
          "name": "",
          "type": "string"
        }
      ],
      "payable": false,
      "stateMutability": "nonpayable",
      "type": "function"
    },
    {
      "constant": false,
      "inputs": [
        {
          "name": "name",
          "type": "string"
        }
      ],
      "name": "echo",
      "outputs": [
        {
          "name": "",
          "type": "string"
        }
      ],
      "payable": false,
      "stateMutability": "nonpayable",
      "type": "function"
    }
  ],
  "bytecode": "0x608060405234801561001057600080fd5b506101b5806100206000396000f3fe608060405234801561001057600080fd5b50600436106100365760003560e01c80630c49c36c1461003b578063f15da729146100b8575b600080fd5b61004361015e565b6040805160208082528351818301528351919283929083019185019080838360005b8381101561007d578181015183820152602001610065565b50505050905090810190601f1680156100aa5780820380516001836020036101000a031916815260200191505b509250505060405180910390f35b610043600480360360208110156100ce57600080fd5b8101906020810181356401000000008111156100e957600080fd5b8201836020820111156100fb57600080fd5b8035906020019184600183028401116401000000008311171561011d57600080fd5b91908080601f016020809104026020016040519081016040528093929190818152602001838380828437600092019190915250929550610186945050505050565b60408051808201909152600b8152600160aa1b6a1a195b1b1bc81ddbdc9b1902602082015290565b9056fea165627a7a7230582060e6be27cb7f1388c2cd0567bb3d9a32f5b1170e0d1882927d619f46c341096b0029",
  "source": "pragma solidity ^0.5.8;\n\ncontract Hello {\n    function sayHi() public returns (string memory) {\n        return \"hello world\";\n    }\n    function echo(string memory name) public returns (string memory) {\n        string memory newname = name;\n        return newname;\n    }\n}\n",
  "sourcePath": "D:/WWW/block/API/newtest/contracts/Hello.sol",
  "compiler": {
    "name": "solc",
    "version": "0.5.8+commit.23d335f2.Emscripten.clang"
  },
  "schemaVersion": "3.0.12",
  "updatedAt": "2019-08-19T09:55:22.722Z",
  "devdoc": {
    "methods": {}
  },
  "userdoc": {
    "methods": {}
  }
}